S01300006B6D5F7573625F746573742E7372656371
S11300000C9442010C9463010C9463010C946301FD
S11300100C9463010C9463010C9463010C946301CC
S11300200C9463010C9463010C9463010C946301BC
S11300300C9463010C9463010C9463010C946301AC
S11300400C9463010C9463010C9463010C9463019C
S11300500C9463010C9463010C9463010C9463018C
S11300600C9463010C9463010C9463010C9463017C
S11300700C9463010C9463010C9463010C9463016C
S11300800C9463010C9463010C9463010C9463015C
S11300900C9463010C9463010C9463010C9463014C
S11300A00C9463010C9463010C9463010C9463013C
S11300B00C9463010C9463010C9463010C9463012C
S11300C00C9463010C9463010C9463010C9463011C
S11300D00C9463010C9463010C9463010C9463010C
S11300E00C9463010C9463010C9463010C946301FC
S11300F00C9463010C9463010C9463010C946301EC
S11301000C9463010C9463010C9463010C946301DB
S11301100C9463010C9463010C9463010C946301CB
S11301200C9463010C9463010C9463010C946301BB
S11301300C9463010C9463010C9463010C946301AB
S11301400C9463010C9463010C9463010C9463019B
S11301500C9463010C9463010C9463010C9463018B
S11301600C9463010C9463010C9463010C9463017B
S11301700C9463010C9463010C9463010C9463016B
S11301800C9463010C9463010C9463010C9463015B
S11301900C9463010C9463010C9463010C9463014B
S11301A00C9463010C9463010C9463010C9463013B
S11301B00C9463010C9463010C9463010C9463012B
S11301C00C9463010C9463010C9463010C9463011B
S11301D00C9463010C9463010C9463010C9463010B
S11301E00C9463010C9463010C9463010C946301FB
S11301F00C9463010C94AB030C94F50312034D00AF
S1130200530046005400310030003000220000004A
S11302101E034500780061006D0070006C006500ED
S1130220200044006500760069006300650000005A
S11302301C034E006F006E006F006C0069007400B8
S1130240680020004C006100620073000000040399
S113025009040902200001010080FA0904000002D7
S1130260FF0000000705810240000007050202406C
S113027000001201000200000040999934000001BE
S11302800102000111241FBECFEFCDBFDFE3DEBFAB
S113029000E00CBF11E2A0E0B0E2E6E9F8E000E023
S11302A00BBF02C007900D92AE30B107D9F721E21F
S11302B0AEE0B1E201C01D92A03AB207E1F70E949C
S11302C0E1010C9449040C9400000F931F93CF9305
S11302D0DF938A01823049F0833061F0813019F56F
S11302E0C2E1D0E082E792E022C082E592E0C0E27F
S11302F0D0E01DC0613059F038F0623059F06E3EE4
S113030061F48CEF91E00BC08EE492E008C080E3CE
S113031092E005C080E192E002C080E090E0FC0140
S1130320C491D0E004C0C0E0D0E080E090E0BE0121
S11303300E942C03F80180839183CE01DF91CF9139
S11303401F910F910895089591E0823008F090E094
S1130350892F089508958091592190915A218530CB
S1130360910521F0049739F00C947C0332EC20E0E1
S113037060E270E204C038E220E064EE70E2809152
S11303805B2190915C21432F522F8417950708F429
S1130390AC0121E080E80E943D030C946D03809140
S11303A055218F7111F0813031F4809156218232C0
S11303B011F40C94AB010C947C030895089580E02F
S11303C008950E94850381E08093B40080E88093BF
S11303D0410682E48093C80483E08093C9040E94A8
S11303E011038091C00480628093C00487E08093ED
S11303F0A20078940E946703FFCFCF93DF93C0914C
S11304005121D0915221C134D10510F0C0E4D0E083
S11304106091532170915421AE0180E191E20E94D8
S1130420400420E0AE0160E171E280E80E943D03F7
S1130430209711F40E946D038091512190915221D3
S11304408C1B9D0B809351219093522180915321B9
S113045090915421C80FD91FC0935321D093542194
S1130460DF91CF910895CF93DF931F921F92CDB761
S1130470DEB780915521807609F082C080915621A3
S1130480853009F474C040F4813009F470C090F0F0
S1130490833009F46CC071C0883009F448C018F482
S11304A0863071F06AC0893009F447C08B3009F492
S11304B052C063C0109210211092112182E058C0E2
S11304C0609157218091582119821A82AE014F5FA1
S11304D05F4F0E946501009709F44FC029813A815A
S11304E02115310509F449C060915B2170915C21AB
S11304F0AC016817790708F4AB0181E220313807B1
S113050059F4109251211092522121E060E171E2DC
S113051080E80E943D0336C04093512150935221FC
S113052020935321309354210E94FD012BC08091CC
S113053050218093102181E01BC0809157210E949B
S1130540A4018823D1F080E00E9474038091572194
S1130550809350210FC06091572170915821809150
S1130560592190915A210E94DF01882331F080E0C3
S11305700E9474030E946D0305C00E947C0302C0A4
S11305800E94CF010F900F90DF91CF910895809139
S11305905521807611F00C94DE0108958091552147
S11305A0807671F480915621853019F0863031F0CF
S11305B00895809157218F770C9429030C94FD01A1
S11305C00C94DD010F939C019FB7F8941BBEF901B5
S11305D008ED04BF60839FBF0F91089581E080936D
S11305E04400E0E0F0E2A0ECB4E01696ED93FC9356
S11305F0179713961C921397108283E4818380E6E5
S113060091E28483958382E0808783E6818780E119
S113061091E28487958780910C218F5F806C8C9305
S11306200895CF93DF93C0ECD1E082E08A87EAE1BA
S1130630F0E0E491A0ECB4E0DA96EC93DA978A87E0
S1130640EBE1F0E0E491DB96EC93DF91CF910C9435
S1130650EE028093C30408951092CA01A0E1B1E2AE
S1130660680F791FFC01E617F70721F084918D9339
S11306703196F9CF80E191E208950F93DB01382F91
S11306803F73082E000C990B792F771F7727771F5C
S113069080E0E72FF82FE30FF11DE30FF11D93E046
S11306A0EE0FFF1F9A95E1F7E050F04EA483B58357
S11306B01682178230E03327269537952227242B7C
S11306C0352B2283338302E206930F910895E0ECE5
S11306D0F4E081818160818308950F93E0E0F0E28A
S11306E002E706930F910895482F50E020E060E15F
S11306F071E280E80C943D03E0E0F0E281818460E3
S1130700818381858460818708958BEC8093520076
S1130710809150008860809350008091510083FF45
S1130720FCCF83EC809355008091500080618093CE
S113073050008091510084FFFCCF64E081E490E09C
S11307400E94E20264E080E490E00E94E20288E118
S11307508093500008951F920F920FB60F921124A8
S11307600BB60F922F933F934F935F936F937F93A7
S11307708F939F93AF93BF93EF93FF938091CA049A
S113078087FF02C080E805C08091CA048E7021F002
S11307908EE08093CA0416C08091CA0480FF02C010
S11307A081E0F7CF80E78093CA048091C20480FF80
S11307B009C08091C2048E7F8093C2040E94EE021D
S11307C00E94A301FF91EF91BF91AF919F918F91EF
S11307D07F916F915F914F913F912F910F900BBE3D
S11307E00F900FBE0F901F9018951F920F920FB687
S11307F00F9211240BB60F920F932F933F934F93A5
S11308005F936F937F938F939F93AF93BF93EF9374
S1130810FF931092C40483E08093CC048091002061
S113082084FF10C0E0E0F0E200E3069388E0E0E635
S1130830F1E2A5E5B1E201900D928A95E1F70E94FB
S1130840330203C085FD0E94C7028091082085FD04
S11308500E94CE020E94AA01FF91EF91BF91AF9135
S11308609F918F917F916F915F914F913F912F91C4
S11308700F910F900BBE0F900FBE0F901F90189505
S1130880FB01DC0102C001900D9241505040D8F7A9
S10908900895F894FFCF67
S1130896000000000000000000000000000000004E
S11308A6000000000000000000000000000000003E
S11308B6C2000000000105000200840000000100DF
S11308C600002800440065007600690063006500A6
S11308D649006E00740065007200660061006300E2
S11308E66500470055004900440000004E00000022
S11308F67B00340032003300310034003200330010
S113090631002D0035004100380031002D0034003F
S11309163900460030002D004200430033004400F5
S11309262D004100340046004600310033003800F3
S1130936320031003600440037007D0000003400E8
S11309460000010000000C004C006100620065001C
S11309566C0000001A0000004E0061006D00650086
S113096635003600370038003900410042000000E7
S1130976000000002800000000010400010000003F
S113098600000000000157494E5553420000000084
S111099600000000000000000000000001004E
S9030000FC
